{"abi":[{"type":"constructor","inputs":[],"stateMutability":"nonpayable"},{"type":"function","name":"adminMintNft","inputs":[{"name":"to","type":"address","internalType":"address"},{"name":"make","type":"string","internalType":"string"},{"name":"model","type":"string","internalType":"string"},{"name":"year","type":"uint256","internalType":"uint256"},{"name":"metadataURI","type":"string","internalType":"string"},{"name":"price","type":"uint256","internalType":"uint256"}],"outputs":[{"name":"","type":"uint256","internalType":"uint256"}],"stateMutability":"nonpayable"},{"type":"function","name":"approve","inputs":[{"name":"to","type":"address","internalType":"address"},{"name":"tokenId","type":"uint256","internalType":"uint256"}],"outputs":[],"stateMutability":"nonpayable"},{"type":"function","name":"balanceOf","inputs":[{"name":"owner","type":"address","internalType":"address"}],"outputs":[{"name":"","type":"uint256","internalType":"uint256"}],"stateMutability":"view"},{"type":"function","name":"buyCarNft","inputs":[{"name":"tokenId","type":"uint256","internalType":"uint256"}],"outputs":[],"stateMutability":"payable"},{"type":"function","name":"carData","inputs":[{"name":"","type":"uint256","internalType":"uint256"}],"outputs":[{"name":"make","type":"string","internalType":"string"},{"name":"model","type":"string","internalType":"string"},{"name":"year","type":"uint256","internalType":"uint256"},{"name":"metadataURI","type":"string","internalType":"string"},{"name":"forSale","type":"bool","internalType":"bool"},{"name":"price","type":"uint256","internalType":"uint256"}],"stateMutability":"view"},{"type":"function","name":"getApproved","inputs":[{"name":"tokenId","type":"uint256","internalType":"uint256"}],"outputs":[{"name":"","type":"address","internalType":"address"}],"stateMutability":"view"},{"type":"function","name":"getAvailableNfts","inputs":[],"outputs":[{"name":"","type":"uint256[]","internalType":"uint256[]"}],"stateMutability":"view"},{"type":"function","name":"getCarMetadata","inputs":[{"name":"tokenId","type":"uint256","internalType":"uint256"}],"outputs":[{"name":"make","type":"string","internalType":"string"},{"name":"model","type":"string","internalType":"string"},{"name":"year","type":"uint256","internalType":"uint256"},{"name":"metadataURI","type":"string","internalType":"string"},{"name":"forSale","type":"bool","internalType":"bool"},{"name":"price","type":"uint256","internalType":"uint256"}],"stateMutability":"view"},{"type":"function","name":"isApprovedForAll","inputs":[{"name":"owner","type":"address","internalType":"address"},{"name":"operator","type":"address","internalType":"address"}],"outputs":[{"name":"","type":"bool","internalType":"bool"}],"stateMutability":"view"},{"type":"function","name":"name","inputs":[],"outputs":[{"name":"","type":"string","internalType":"string"}],"stateMutability":"view"},{"type":"function","name":"nextTokenId","inputs":[],"outputs":[{"name":"","type":"uint256","internalType":"uint256"}],"stateMutability":"view"},{"type":"function","name":"nftsForSale","inputs":[{"name":"","type":"uint256","internalType":"uint256"}],"outputs":[{"name":"","type":"uint256","internalType":"uint256"}],"stateMutability":"view"},{"type":"function","name":"owner","inputs":[],"outputs":[{"name":"","type":"address","internalType":"address"}],"stateMutability":"view"},{"type":"function","name":"ownerOf","inputs":[{"name":"tokenId","type":"uint256","internalType":"uint256"}],"outputs":[{"name":"","type":"address","internalType":"address"}],"stateMutability":"view"},{"type":"function","name":"renounceOwnership","inputs":[],"outputs":[],"stateMutability":"nonpayable"},{"type":"function","name":"safeTransferFrom","inputs":[{"name":"from","type":"address","internalType":"address"},{"name":"to","type":"address","internalType":"address"},{"name":"tokenId","type":"uint256","internalType":"uint256"}],"outputs":[],"stateMutability":"nonpayable"},{"type":"function","name":"safeTransferFrom","inputs":[{"name":"from","type":"address","internalType":"address"},{"name":"to","type":"address","internalType":"address"},{"name":"tokenId","type":"uint256","internalType":"uint256"},{"name":"data","type":"bytes","internalType":"bytes"}],"outputs":[],"stateMutability":"nonpayable"},{"type":"function","name":"setApprovalForAll","inputs":[{"name":"operator","type":"address","internalType":"address"},{"name":"approved","type":"bool","internalType":"bool"}],"outputs":[],"stateMutability":"nonpayable"},{"type":"function","name":"setForSale","inputs":[{"name":"tokenId","type":"uint256","internalType":"uint256"},{"name":"isForSale","type":"bool","internalType":"bool"},{"name":"newPrice","type":"uint256","internalType":"uint256"}],"outputs":[],"stateMutability":"nonpayable"},{"type":"function","name":"supportsInterface","inputs":[{"name":"interfaceId","type":"bytes4","internalType":"bytes4"}],"outputs":[{"name":"","type":"bool","internalType":"bool"}],"stateMutability":"view"},{"type":"function","name":"symbol","inputs":[],"outputs":[{"name":"","type":"string","internalType":"string"}],"stateMutability":"view"},{"type":"function","name":"tokenURI","inputs":[{"name":"tokenId","type":"uint256","internalType":"uint256"}],"outputs":[{"name":"","type":"string","internalType":"string"}],"stateMutability":"view"},{"type":"function","name":"transferFrom","inputs":[{"name":"from","type":"address","internalType":"address"},{"name":"to","type":"address","internalType":"address"},{"name":"tokenId","type":"uint256","internalType":"uint256"}],"outputs":[],"stateMutability":"nonpayable"},{"type":"function","name":"transferOwnership","inputs":[{"name":"newOwner","type":"address","internalType":"address"}],"outputs":[],"stateMutability":"nonpayable"},{"type":"event","name":"Approval","inputs":[{"name":"owner","type":"address","indexed":true,"internalType":"address"},{"name":"approved","type":"address","indexed":true,"internalType":"address"},{"name":"tokenId","type":"uint256","indexed":true,"internalType":"uint256"}],"anonymous":false},{"type":"event","name":"ApprovalForAll","inputs":[{"name":"owner","type":"address","indexed":true,"internalType":"address"},{"name":"operator","type":"address","indexed":true,"internalType":"address"},{"name":"approved","type":"bool","indexed":false,"internalType":"bool"}],"anonymous":false},{"type":"event","name":"CarListed","inputs":[{"name":"tokenId","type":"uint256","indexed":true,"internalType":"uint256"},{"name":"price","type":"uint256","indexed":false,"internalType":"uint256"}],"anonymous":false},{"type":"event","name":"CarMinted","inputs":[{"name":"tokenId","type":"uint256","indexed":true,"internalType":"uint256"},{"name":"minter","type":"address","indexed":false,"internalType":"address"}],"anonymous":false},{"type":"event","name":"CarSold","inputs":[{"name":"tokenId","type":"uint256","indexed":true,"internalType":"uint256"},{"name":"seller","type":"address","indexed":false,"internalType":"address"},{"name":"buyer","type":"address","indexed":false,"internalType":"address"},{"name":"price","type":"uint256","indexed":false,"internalType":"uint256"}],"anonymous":false},{"type":"event","name":"OwnershipTransferred","inputs":[{"name":"previousOwner","type":"address","indexed":true,"internalType":"address"},{"name":"newOwner","type":"address","indexed":true,"internalType":"address"}],"anonymous":false},{"type":"event","name":"Transfer","inputs":[{"name":"from","type":"address","indexed":true,"internalType":"address"},{"name":"to","type":"address","indexed":true,"internalType":"address"},{"name":"tokenId","type":"uint256","indexed":true,"internalType":"uint256"}],"anonymous":false},{"type":"error","name":"ERC721IncorrectOwner","inputs":[{"name":"sender","type":"address","internalType":"address"},{"name":"tokenId","type":"uint256","internalType":"uint256"},{"name":"owner","type":"address","internalType":"address"}]},{"type":"error","name":"ERC721InsufficientApproval","inputs":[{"name":"operator","type":"address","internalType":"address"},{"name":"tokenId","type":"uint256","internalType":"uint256"}]},{"type":"error","name":"ERC721InvalidApprover","inputs":[{"name":"approver","type":"address","internalType":"address"}]},{"type":"error","name":"ERC721InvalidOperator","inputs":[{"name":"operator","type":"address","internalType":"address"}]},{"type":"error","name":"ERC721InvalidOwner","inputs":[{"name":"owner","type":"address","internalType":"address"}]},{"type":"error","name":"ERC721InvalidReceiver","inputs":[{"name":"receiver","type":"address","internalType":"address"}]},{"type":"error","name":"ERC721InvalidSender","inputs":[{"name":"sender","type":"address","internalType":"address"}]},{"type":"error","name":"ERC721NonexistentToken","inputs":[{"name":"tokenId","type":"uint256","internalType":"uint256"}]},{"type":"error","name":"OwnableInvalidOwner","inputs":[{"name":"owner","type":"address","internalType":"address"}]},{"type":"error","name":"OwnableUnauthorizedAccount","inputs":[{"name":"account","type":"address","internalType":"address"}]}],"bytecode":{"object":"0x6080604052600160075534801562000015575f80fd5b50336040518060400160405280600981526020017f4361724465616c657200000000000000000000000000000000000000000000008152506040518060400160405280600581526020017f43524e4654000000000000000000000000000000000000000000000000000000815250815f90816200009391906200045a565b508060019081620000a591906200045a565b5050505f73ffffffffffffffffffffffffffffffffffffffff168173ffffffffffffffffffffffffffffffffffffffff16036200011b575f6040517f1e4fbdf700000000000000000000000000000000000000000000000000000000815260040162000112919062000581565b60405180910390fd5b6200012c816200013360201b60201c565b506200059c565b5f60065f9054906101000a900473ffffffffffffffffffffffffffffffffffffffff1690508160065f6101000a81548173ffffffffffffffffffffffffffffffffffffffff021916908373ffffffffffffffffffffffffffffffffffffffff1602179055508173ffffffffffffffffffffffffffffffffffffffff168173ffffffffffffffffffffffffffffffffffffffff167f8be0079c531659141344cd1fd0a4f28419497f9722a3daafe3b4186f6b6457e060405160405180910390a35050565b5f81519050919050565b7f4e487b71000000000000000000000000000000000000000000000000000000005f52604160045260245ffd5b7f4e487b71000000000000000000000000000000000000000000000000000000005f52602260045260245ffd5b5f60028204905060018216806200027257607f821691505b6020821081036200028857620002876200022d565b5b50919050565b5f819050815f5260205f209050919050565b5f6020601f8301049050919050565b5f82821b905092915050565b5f60088302620002ec7fffffffffffffffffffffffffffffffffffffffffffffffffffffffffffffffff82620002af565b620002f88683620002af565b95508019841693508086168417925050509392505050565b5f819050919050565b5f819050919050565b5f620003426200033c620003368462000310565b62000319565b62000310565b9050919050565b5f819050919050565b6200035d8362000322565b620003756200036c8262000349565b848454620002bb565b825550505050565b5f90565b6200038b6200037d565b6200039881848462000352565b505050565b5b81811015620003bf57620003b35f8262000381565b6001810190506200039e565b5050565b601f8211156200040e57620003d8816200028e565b620003e384620002a0565b81016020851015620003f3578190505b6200040b6200040285620002a0565b8301826200039d565b50505b505050565b5f82821c905092915050565b5f620004305f198460080262000413565b1980831691505092915050565b5f6200044a83836200041f565b9150826002028217905092915050565b6200046582620001f6565b67ffffffffffffffff81111562000481576200048062000200565b5b6200048d82546200025a565b6200049a828285620003c3565b5f60209050601f831160018114620004d0575f8415620004bb578287015190505b620004c785826200043d565b86555062000536565b601f198416620004e0866200028e565b5f5b828110156200050957848901518255600182019150602085019450602081019050620004e2565b8683101562000529578489015162000525601f8916826200041f565b8355505b6001600288020188555050505b505050505050565b5f73ffffffffffffffffffffffffffffffffffffffff82169050919050565b5f62000569826200053e565b9050919050565b6200057b816200055d565b82525050565b5f602082019050620005965f83018462000570565b92915050565b61352c80620005aa5f395ff3fe60806040526004361061014a575f3560e01c8063715018a6116100b5578063c6bdcfc81161006e578063c6bdcfc8146104be578063c87b56dd146104da578063cf5c1b5214610516578063e985e9c51461053e578063ea9980041461057a578063f2fde38b146105a45761014a565b8063715018a6146103da57806375794a3c146103f05780638da5cb5b1461041a57806395d89b4114610444578063a22cb4651461046e578063b88d4fde146104965761014a565b806337d327a11161010757806337d327a11461027c5780633a32bda3146102b857806342842e0e146102f95780636161ee71146103215780636352211e1461036257806370a082311461039e5761014a565b806301ffc9a71461014e57806306fdde031461018a578063081812fc146101b4578063095ea7b3146101f057806322fcb81f1461021857806323b872dd14610254575b5f80fd5b348015610159575f80fd5b50610174600480360381019061016f91906125cd565b6105cc565b6040516101819190612612565b60405180910390f35b348015610195575f80fd5b5061019e6106ad565b6040516101ab91906126b5565b60405180910390f35b3480156101bf575f80fd5b506101da60048036038101906101d59190612708565b61073c565b6040516101e79190612772565b60405180910390f35b3480156101fb575f80fd5b50610216600480360381019061021191906127b5565b610757565b005b348015610223575f80fd5b5061023e6004803603810190610239919061291f565b61076d565b60405161024b9190612a0b565b60405180910390f35b34801561025f575f80fd5b5061027a60048036038101906102759190612a24565b6108f4565b005b348015610287575f80fd5b506102a2600480360381019061029d9190612708565b6109f3565b6040516102af9190612a0b565b60405180910390f35b3480156102c3575f80fd5b506102de60048036038101906102d99190612708565b610a13565b6040516102f096959493929190612a74565b60405180910390f35b348015610304575f80fd5b5061031f600480360381019061031a9190612a24565b610c4a565b005b34801561032c575f80fd5b5061034760048036038101906103429190612708565b610c69565b60405161035996959493929190612a74565b60405180910390f35b34801561036d575f80fd5b5061038860048036038101906103839190612708565b610e3f565b6040516103959190612772565b60405180910390f35b3480156103a9575f80fd5b506103c460048036038101906103bf9190612ae8565b610e50565b6040516103d19190612a0b565b60405180910390f35b3480156103e5575f80fd5b506103ee610f06565b005b3480156103fb575f80fd5b50610404610f19565b6040516104119190612a0b565b60405180910390f35b348015610425575f80fd5b5061042e610f1f565b60405161043b9190612772565b60405180910390f35b34801561044f575f80fd5b50610458610f47565b60405161046591906126b5565b60405180910390f35b348015610479575f80fd5b50610494600480360381019061048f9190612b3d565b610fd7565b005b3480156104a1575f80fd5b506104bc60048036038101906104b79190612c19565b610fed565b005b6104d860048036038101906104d39190612708565b611012565b005b3480156104e5575f80fd5b5061050060048036038101906104fb9190612708565b61119d565b60405161050d91906126b5565b60405180910390f35b348015610521575f80fd5b5061053c60048036038101906105379190612c99565b611203565b005b348015610549575f80fd5b50610564600480360381019061055f9190612ce9565b61138c565b6040516105719190612612565b60405180910390f35b348015610585575f80fd5b5061058e61141a565b60405161059b9190612dde565b60405180910390f35b3480156105af575f80fd5b506105ca60048036038101906105c59190612ae8565b611470565b005b5f7f80ac58cd000000000000000000000000000000000000000000000000000000007bffffffffffffffffffffffffffffffffffffffffffffffffffffffff1916827bffffffffffffffffffffffffffffffffffffffffffffffffffffffff1916148061069657507f5b5e139f000000000000000000000000000000000000000000000000000000007bffffffffffffffffffffffffffffffffffffffffffffffffffffffff1916827bffffffffffffffffffffffffffffffffffffffffffffffffffffffff1916145b806106a657506106a5826114f4565b5b9050919050565b60605f80546106bb90612e2b565b80601f01602080910402602001604051908101604052809291908181526020018280546106e790612e2b565b80156107325780601f1061070957610100808354040283529160200191610732565b820191905f5260205f20905b81548152906001019060200180831161071557829003601f168201915b5050505050905090565b5f6107468261155d565b50610750826115e3565b9050919050565b610769828261076461161c565b611623565b5050565b5f610776611635565b5f60075f81548092919061078990612e88565b91905055905061079988826116bc565b6040518060c001604052808881526020018781526020018681526020018581526020016001151581526020018481525060095f8381526020019081526020015f205f820151815f0190816107ed919061306c565b506020820151816001019081610803919061306c565b50604082015181600201556060820151816003019081610823919061306c565b506080820151816004015f6101000a81548160ff02191690831515021790555060a08201518160050155905050600881908060018154018082558091505060019003905f5260205f20015f9091909190915055807f1788a40e85b08e480ec0af90dca0d74368184660c59c308d4ebceda2b835a472896040516108a69190612772565b60405180910390a2807f506aa3644eeb36b986c05e5a3a7eaa890565eaf642ab754c351bfee540f4337a846040516108de9190612a0b565b60405180910390a2809150509695505050505050565b5f73ffffffffffffffffffffffffffffffffffffffff168273ffffffffffffffffffffffffffffffffffffffff1603610964575f6040517f64a0ae9200000000000000000000000000000000000000000000000000000000815260040161095b9190612772565b60405180910390fd5b5f610977838361097261161c565b6117af565b90508373ffffffffffffffffffffffffffffffffffffffff168173ffffffffffffffffffffffffffffffffffffffff16146109ed578382826040517f64283d7b0000000000000000000000000000000000000000000000000000000081526004016109e49392919061313b565b60405180910390fd5b50505050565b60088181548110610a02575f80fd5b905f5260205f20015f915090505481565b6060805f60605f805f60095f8981526020019081526020015f206040518060c00160405290815f82018054610a4790612e2b565b80601f0160208091040260200160405190810160405280929190818152602001828054610a7390612e2b565b8015610abe5780601f10610a9557610100808354040283529160200191610abe565b820191905f5260205f20905b815481529060010190602001808311610aa157829003601f168201915b50505050508152602001600182018054610ad790612e2b565b80601f0160208091040260200160405190810160405280929190818152602001828054610b0390612e2b565b8015610b4e5780601f10610b2557610100808354040283529160200191610b4e565b820191905f5260205f20905b815481529060010190602001808311610b3157829003601f168201915b5050505050815260200160028201548152602001600382018054610b7190612e2b565b80601f0160208091040260200160405190810160405280929190818152602001828054610b9d90612e2b565b8015610be85780601f10610bbf57610100808354040283529160200191610be8565b820191905f5260205f20905b815481529060010190602001808311610bcb57829003601f168201915b50505050508152602001600482015f9054906101000a900460ff161515151581526020016005820154815250509050805f015181602001518260400151836060015184608001518560a001519650965096509650965096505091939550919395565b610c6483838360405180602001604052805f815250610fed565b505050565b6009602052805f5260405f205f91509050805f018054610c8890612e2b565b80601f0160208091040260200160405190810160405280929190818152602001828054610cb490612e2b565b8015610cff5780601f10610cd657610100808354040283529160200191610cff565b820191905f5260205f20905b815481529060010190602001808311610ce257829003601f168201915b505050505090806001018054610d1490612e2b565b80601f0160208091040260200160405190810160405280929190818152602001828054610d4090612e2b565b8015610d8b5780601f10610d6257610100808354040283529160200191610d8b565b820191905f5260205f20905b815481529060010190602001808311610d6e57829003601f168201915b505050505090806002015490806003018054610da690612e2b565b80601f0160208091040260200160405190810160405280929190818152602001828054610dd290612e2b565b8015610e1d5780601f10610df457610100808354040283529160200191610e1d565b820191905f5260205f20905b815481529060010190602001808311610e0057829003601f168201915b505050505090806004015f9054906101000a900460ff16908060050154905086565b5f610e498261155d565b9050919050565b5f8073ffffffffffffffffffffffffffffffffffffffff168273ffffffffffffffffffffffffffffffffffffffff1603610ec1575f6040517f89c62b64000000000000000000000000000000000000000000000000000000008152600401610eb89190612772565b60405180910390fd5b60035f8373ffffffffffffffffffffffffffffffffffffffff1673ffffffffffffffffffffffffffffffffffffffff1681526020019081526020015f20549050919050565b610f0e611635565b610f175f6119ba565b565b60075481565b5f60065f9054906101000a900473ffffffffffffffffffffffffffffffffffffffff16905090565b606060018054610f5690612e2b565b80601f0160208091040260200160405190810160405280929190818152602001828054610f8290612e2b565b8015610fcd5780601f10610fa457610100808354040283529160200191610fcd565b820191905f5260205f20905b815481529060010190602001808311610fb057829003601f168201915b5050505050905090565b610fe9610fe261161c565b8383611a7d565b5050565b610ff88484846108f4565b61100c61100361161c565b85858585611be6565b50505050565b5f61101c82610e3f565b90505f60095f8481526020019081526020015f2060050154905060095f8481526020019081526020015f206004015f9054906101000a900460ff16611096576040517f08c379a000000000000000000000000000000000000000000000000000000000815260040161108d906131ba565b60405180910390fd5b803410156110d9576040517f08c379a00000000000000000000000000000000000000000000000000000000081526004016110d090613222565b60405180910390fd5b5f60095f8581526020019081526020015f206004015f6101000a81548160ff02191690831515021790555061110f823385611d92565b8173ffffffffffffffffffffffffffffffffffffffff166108fc3490811502906040515f60405180830381858888f19350505050158015611152573d5f803e3d5ffd5b5061115c83611efa565b827f8205a71867f7292bcef9e53d4774758d6173b03f63017dec9a03a6664b429dc583333460405161119093929190613240565b60405180910390a2505050565b60606111a88261155d565b505f6111b2611fbb565b90505f8151116111d05760405180602001604052805f8152506111fb565b806111da84611fd1565b6040516020016111eb9291906132af565b6040516020818303038152906040525b915050919050565b3373ffffffffffffffffffffffffffffffffffffffff1661122384610e3f565b73ffffffffffffffffffffffffffffffffffffffff1614611279576040517f08c379a00000000000000000000000000000000000000000000000000000000081526004016112709061331c565b60405180910390fd5b8160095f8581526020019081526020015f206004015f6101000a81548160ff021916908315150217905550811561137d578060095f8581526020019081526020015f20600501819055505f805b6008805490508110156113125784600882815481106112e8576112e761333a565b5b905f5260205f200154036112ff5760019150611312565b808061130a90612e88565b9150506112c6565b508061133f57600884908060018154018082558091505060019003905f5260205f20015f90919091909150555b837f506aa3644eeb36b986c05e5a3a7eaa890565eaf642ab754c351bfee540f4337a8360405161136f9190612a0b565b60405180910390a250611387565b61138683611efa565b5b505050565b5f60055f8473ffffffffffffffffffffffffffffffffffffffff1673ffffffffffffffffffffffffffffffffffffffff1681526020019081526020015f205f8373ffffffffffffffffffffffffffffffffffffffff1673ffffffffffffffffffffffffffffffffffffffff1681526020019081526020015f205f9054906101000a900460ff16905092915050565b6060600880548060200260200160405190810160405280929190818152602001828054801561146657602002820191905f5260205f20905b815481526020019060010190808311611452575b5050505050905090565b611478611635565b5f73ffffffffffffffffffffffffffffffffffffffff168173ffffffffffffffffffffffffffffffffffffffff16036114e8575f6040517f1e4fbdf70000000000000000000000000000000000000000000000000000000081526004016114df9190612772565b60405180910390fd5b6114f1816119ba565b50565b5f7f01ffc9a7000000000000000000000000000000000000000000000000000000007bffffffffffffffffffffffffffffffffffffffffffffffffffffffff1916827bffffffffffffffffffffffffffffffffffffffffffffffffffffffff1916149050919050565b5f806115688361209b565b90505f73ffffffffffffffffffffffffffffffffffffffff168173ffffffffffffffffffffffffffffffffffffffff16036115da57826040517f7e2732890000000000000000000000000000000000000000000000000000000081526004016115d19190612a0b565b60405180910390fd5b80915050919050565b5f60045f8381526020019081526020015f205f9054906101000a900473ffffffffffffffffffffffffffffffffffffffff169050919050565b5f33905090565b61163083838360016120d4565b505050565b61163d61161c565b73ffffffffffffffffffffffffffffffffffffffff1661165b610f1f565b73ffffffffffffffffffffffffffffffffffffffff16146116ba5761167e61161c565b6040517f118cdaa70000000000000000000000000000000000000000000000000000000081526004016116b19190612772565b60405180910390fd5b565b5f73ffffffffffffffffffffffffffffffffffffffff168273ffffffffffffffffffffffffffffffffffffffff160361172c575f6040517f64a0ae920000000000000000000000000000000000000000000000000000000081526004016117239190612772565b60405180910390fd5b5f61173883835f6117af565b90505f73ffffffffffffffffffffffffffffffffffffffff168173ffffffffffffffffffffffffffffffffffffffff16146117aa575f6040517f73c6ac6e0000000000000000000000000000000000000000000000000000000081526004016117a19190612772565b60405180910390fd5b505050565b5f806117ba8461209b565b90505f73ffffffffffffffffffffffffffffffffffffffff168373ffffffffffffffffffffffffffffffffffffffff16146117fb576117fa818486612293565b5b5f73ffffffffffffffffffffffffffffffffffffffff168173ffffffffffffffffffffffffffffffffffffffff16146118865761183a5f855f806120d4565b600160035f8373ffffffffffffffffffffffffffffffffffffffff1673ffffffffffffffffffffffffffffffffffffffff1681526020019081526020015f205f82825403925050819055505b5f73ffffffffffffffffffffffffffffffffffffffff168573ffffffffffffffffffffffffffffffffffffffff161461190557600160035f8773ffffffffffffffffffffffffffffffffffffffff1673ffffffffffffffffffffffffffffffffffffffff1681526020019081526020015f205f82825401925050819055505b8460025f8681526020019081526020015f205f6101000a81548173ffffffffffffffffffffffffffffffffffffffff021916908373ffffffffffffffffffffffffffffffffffffffff160217905550838573ffffffffffffffffffffffffffffffffffffffff168273ffffffffffffffffffffffffffffffffffffffff167fddf252ad1be2c89b69c2b068fc378daa952ba7f163c4a11628f55a4df523b3ef60405160405180910390a4809150509392505050565b5f60065f9054906101000a900473ffffffffffffffffffffffffffffffffffffffff1690508160065f6101000a81548173ffffffffffffffffffffffffffffffffffffffff021916908373ffffffffffffffffffffffffffffffffffffffff1602179055508173ffffffffffffffffffffffffffffffffffffffff168173ffffffffffffffffffffffffffffffffffffffff167f8be0079c531659141344cd1fd0a4f28419497f9722a3daafe3b4186f6b6457e060405160405180910390a35050565b5f73ffffffffffffffffffffffffffffffffffffffff168273ffffffffffffffffffffffffffffffffffffffff1603611aed57816040517f5b08ba18000000000000000000000000000000000000000000000000000000008152600401611ae49190612772565b60405180910390fd5b8060055f8573ffffffffffffffffffffffffffffffffffffffff1673ffffffffffffffffffffffffffffffffffffffff1681526020019081526020015f205f8473ffffffffffffffffffffffffffffffffffffffff1673ffffffffffffffffffffffffffffffffffffffff1681526020019081526020015f205f6101000a81548160ff0219169083151502179055508173ffffffffffffffffffffffffffffffffffffffff168373ffffffffffffffffffffffffffffffffffffffff167f17307eab39ab6107e8899845ad3d59bd9653f200f220920489ca2b5937696c3183604051611bd99190612612565b60405180910390a3505050565b5f8373ffffffffffffffffffffffffffffffffffffffff163b1115611d8b578273ffffffffffffffffffffffffffffffffffffffff1663150b7a02868685856040518563ffffffff1660e01b8152600401611c4494939291906133b9565b6020604051808303815f875af1925050508015611c7f57506040513d601f19601f82011682018060405250810190611c7c9190613417565b60015b611d00573d805f8114611cad576040519150601f19603f3d011682016040523d82523d5f602084013e611cb2565b606091505b505f815103611cf857836040517f64a0ae92000000000000000000000000000000000000000000000000000000008152600401611cef9190612772565b60405180910390fd5b805181602001fd5b63150b7a0260e01b7bffffffffffffffffffffffffffffffffffffffffffffffffffffffff1916817bffffffffffffffffffffffffffffffffffffffffffffffffffffffff191614611d8957836040517f64a0ae92000000000000000000000000000000000000000000000000000000008152600401611d809190612772565b60405180910390fd5b505b5050505050565b5f73ffffffffffffffffffffffffffffffffffffffff168273ffffffffffffffffffffffffffffffffffffffff1603611e02575f6040517f64a0ae92000000000000000000000000000000000000000000000000000000008152600401611df99190612772565b60405180910390fd5b5f611e0e83835f6117af565b90505f73ffffffffffffffffffffffffffffffffffffffff168173ffffffffffffffffffffffffffffffffffffffff1603611e8057816040517f7e273289000000000000000000000000000000000000000000000000000000008152600401611e779190612a0b565b60405180910390fd5b8373ffffffffffffffffffffffffffffffffffffffff168173ffffffffffffffffffffffffffffffffffffffff1614611ef4578382826040517f64283d7b000000000000000000000000000000000000000000000000000000008152600401611eeb9392919061313b565b60405180910390fd5b50505050565b5f5b600880549050811015611fb7578160088281548110611f1e57611f1d61333a565b5b905f5260205f20015403611fa45760086001600880549050611f409190613442565b81548110611f5157611f5061333a565b5b905f5260205f20015460088281548110611f6e57611f6d61333a565b5b905f5260205f2001819055506008805480611f8c57611f8b613475565b5b600190038181905f5260205f20015f90559055611fb7565b8080611faf90612e88565b915050611efc565b5050565b606060405180602001604052805f815250905090565b60605f6001611fdf84612356565b0190505f8167ffffffffffffffff811115611ffd57611ffc6127fb565b5b6040519080825280601f01601f19166020018201604052801561202f5781602001600182028036833780820191505090505b5090505f82602001820190505b600115612090578080600190039150507f3031323334353637383961626364656600000000000000000000000000000000600a86061a8153600a8581612085576120846134a2565b5b0494505f850361203c575b819350505050919050565b5f60025f8381526020019081526020015f205f9054906101000a900473ffffffffffffffffffffffffffffffffffffffff169050919050565b808061210c57505f73ffffffffffffffffffffffffffffffffffffffff168273ffffffffffffffffffffffffffffffffffffffff1614155b1561223e575f61211b8461155d565b90505f73ffffffffffffffffffffffffffffffffffffffff168373ffffffffffffffffffffffffffffffffffffffff161415801561218557508273ffffffffffffffffffffffffffffffffffffffff168173ffffffffffffffffffffffffffffffffffffffff1614155b80156121985750612196818461138c565b155b156121da57826040517fa9fbf51f0000000000000000000000000000000000000000000000000000000081526004016121d19190612772565b60405180910390fd5b811561223c57838573ffffffffffffffffffffffffffffffffffffffff168273ffffffffffffffffffffffffffffffffffffffff167f8c5be1e5ebec7d5bd14f71427d1e84f3dd0314c0f7b2291e5b200ac8c7c3b92560405160405180910390a45b505b8360045f8581526020019081526020015f205f6101000a81548173ffffffffffffffffffffffffffffffffffffffff021916908373ffffffffffffffffffffffffffffffffffffffff16021790555050505050565b61229e8383836124a7565b612351575f73ffffffffffffffffffffffffffffffffffffffff168373ffffffffffffffffffffffffffffffffffffffff160361231257806040517f7e2732890000000000000000000000000000000000000000000000000000000081526004016123099190612a0b565b60405180910390fd5b81816040517f177e802f0000000000000000000000000000000000000000000000000000000081526004016123489291906134cf565b60405180910390fd5b505050565b5f805f90507a184f03e93ff9f4daa797ed6e38ed64bf6a1f01000000000000000083106123b2577a184f03e93ff9f4daa797ed6e38ed64bf6a1f01000000000000000083816123a8576123a76134a2565b5b0492506040810190505b6d04ee2d6d415b85acef810000000083106123ef576d04ee2d6d415b85acef810000000083816123e5576123e46134a2565b5b0492506020810190505b662386f26fc10000831061241e57662386f26fc100008381612414576124136134a2565b5b0492506010810190505b6305f5e1008310612447576305f5e100838161243d5761243c6134a2565b5b0492506008810190505b612710831061246c576127108381612462576124616134a2565b5b0492506004810190505b6064831061248f5760648381612485576124846134a2565b5b0492506002810190505b600a831061249e576001810190505b80915050919050565b5f8073ffffffffffffffffffffffffffffffffffffffff168373ffffffffffffffffffffffffffffffffffffffff161415801561255e57508273ffffffffffffffffffffffffffffffffffffffff168473ffffffffffffffffffffffffffffffffffffffff16148061251f575061251e848461138c565b5b8061255d57508273ffffffffffffffffffffffffffffffffffffffff16612545836115e3565b73ffffffffffffffffffffffffffffffffffffffff16145b5b90509392505050565b5f604051905090565b5f80fd5b5f80fd5b5f7fffffffff0000000000000000000000000000000000000000000000000000000082169050919050565b6125ac81612578565b81146125b6575f80fd5b50565b5f813590506125c7816125a3565b92915050565b5f602082840312156125e2576125e1612570565b5b5f6125ef848285016125b9565b91505092915050565b5f8115159050919050565b61260c816125f8565b82525050565b5f6020820190506126255f830184612603565b92915050565b5f81519050919050565b5f82825260208201905092915050565b5f5b83811015612662578082015181840152602081019050612647565b5f8484015250505050565b5f601f19601f8301169050919050565b5f6126878261262b565b6126918185612635565b93506126a1818560208601612645565b6126aa8161266d565b840191505092915050565b5f6020820190508181035f8301526126cd818461267d565b905092915050565b5f819050919050565b6126e7816126d5565b81146126f1575f80fd5b50565b5f81359050612702816126de565b92915050565b5f6020828403121561271d5761271c612570565b5b5f61272a848285016126f4565b91505092915050565b5f73ffffffffffffffffffffffffffffffffffffffff82169050919050565b5f61275c82612733565b9050919050565b61276c81612752565b82525050565b5f6020820190506127855f830184612763565b92915050565b61279481612752565b811461279e575f80fd5b50565b5f813590506127af8161278b565b92915050565b5f80604083850312156127cb576127ca612570565b5b5f6127d8858286016127a1565b92505060206127e9858286016126f4565b9150509250929050565b5f80fd5b5f80fd5b7f4e487b71000000000000000000000000000000000000000000000000000000005f52604160045260245ffd5b6128318261266d565b810181811067ffffffffffffffff821117156128505761284f6127fb565b5b80604052505050565b5f612862612567565b905061286e8282612828565b919050565b5f67ffffffffffffffff82111561288d5761288c6127fb565b5b6128968261266d565b9050602081019050919050565b828183375f83830152505050565b5f6128c36128be84612873565b612859565b9050828152602081018484840111156128df576128de6127f7565b5b6128ea8482856128a3565b509392505050565b5f82601f830112612906576129056127f3565b5b81356129168482602086016128b1565b91505092915050565b5f805f805f8060c0878903121561293957612938612570565b5b5f61294689828a016127a1565b965050602087013567ffffffffffffffff81111561296757612966612574565b5b61297389828a016128f2565b955050604087013567ffffffffffffffff81111561299457612993612574565b5b6129a089828a016128f2565b94505060606129b189828a016126f4565b935050608087013567ffffffffffffffff8111156129d2576129d1612574565b5b6129de89828a016128f2565b92505060a06129ef89828a016126f4565b9150509295509295509295565b612a05816126d5565b82525050565b5f602082019050612a1e5f8301846129fc565b92915050565b5f805f60608486031215612a3b57612a3a612570565b5b5f612a48868287016127a1565b9350506020612a59868287016127a1565b9250506040612a6a868287016126f4565b9150509250925092565b5f60c0820190508181035f830152612a8c818961267d565b90508181036020830152612aa0818861267d565b9050612aaf60408301876129fc565b8181036060830152612ac1818661267d565b9050612ad06080830185612603565b612add60a08301846129fc565b979650505050505050565b5f60208284031215612afd57612afc612570565b5b5f612b0a848285016127a1565b91505092915050565b612b1c816125f8565b8114612b26575f80fd5b50565b5f81359050612b3781612b13565b92915050565b5f8060408385031215612b5357612b52612570565b5b5f612b60858286016127a1565b9250506020612b7185828601612b29565b9150509250929050565b5f67ffffffffffffffff821115612b9557612b946127fb565b5b612b9e8261266d565b9050602081019050919050565b5f612bbd612bb884612b7b565b612859565b905082815260208101848484011115612bd957612bd86127f7565b5b612be48482856128a3565b509392505050565b5f82601f830112612c0057612bff6127f3565b5b8135612c10848260208601612bab565b91505092915050565b5f805f8060808587031215612c3157612c30612570565b5b5f612c3e878288016127a1565b9450506020612c4f878288016127a1565b9350506040612c60878288016126f4565b925050606085013567ffffffffffffffff811115612c8157612c80612574565b5b612c8d87828801612bec565b91505092959194509250565b5f805f60608486031215612cb057612caf612570565b5b5f612cbd868287016126f4565b9350506020612cce86828701612b29565b9250506040612cdf868287016126f4565b9150509250925092565b5f8060408385031215612cff57612cfe612570565b5b5f612d0c858286016127a1565b9250506020612d1d858286016127a1565b9150509250929050565b5f81519050919050565b5f82825260208201905092915050565b5f819050602082019050919050565b612d59816126d5565b82525050565b5f612d6a8383612d50565b60208301905092915050565b5f602082019050919050565b5f612d8c82612d27565b612d968185612d31565b9350612da183612d41565b805f5b83811015612dd1578151612db88882612d5f565b9750612dc383612d76565b925050600181019050612da4565b5085935050505092915050565b5f6020820190508181035f830152612df68184612d82565b905092915050565b7f4e487b71000000000000000000000000000000000000000000000000000000005f52602260045260245ffd5b5f6002820490506001821680612e4257607f821691505b602082108103612e5557612e54612dfe565b5b50919050565b7f4e487b71000000000000000000000000000000000000000000000000000000005f52601160045260245ffd5b5f612e92826126d5565b91507fffffffffffffffffffffffffffffffffffffffffffffffffffffffffffffffff8203612ec457612ec3612e5b565b5b600182019050919050565b5f819050815f5260205f209050919050565b5f6020601f8301049050919050565b5f82821b905092915050565b5f60088302612f2b7fffffffffffffffffffffffffffffffffffffffffffffffffffffffffffffffff82612ef0565b612f358683612ef0565b95508019841693508086168417925050509392505050565b5f819050919050565b5f612f70612f6b612f66846126d5565b612f4d565b6126d5565b9050919050565b5f819050919050565b612f8983612f56565b612f9d612f9582612f77565b848454612efc565b825550505050565b5f90565b612fb1612fa5565b612fbc818484612f80565b505050565b5b81811015612fdf57612fd45f82612fa9565b600181019050612fc2565b5050565b601f82111561302457612ff581612ecf565b612ffe84612ee1565b8101602085101561300d578190505b61302161301985612ee1565b830182612fc1565b50505b505050565b5f82821c905092915050565b5f6130445f1984600802613029565b1980831691505092915050565b5f61305c8383613035565b9150826002028217905092915050565b6130758261262b565b67ffffffffffffffff81111561308e5761308d6127fb565b5b6130988254612e2b565b6130a3828285612fe3565b5f60209050601f8311600181146130d4575f84156130c2578287015190505b6130cc8582613051565b865550613133565b601f1984166130e286612ecf565b5f5b82811015613109578489015182556001820191506020850194506020810190506130e4565b868310156131265784890151613122601f891682613035565b8355505b6001600288020188555050505b505050505050565b5f60608201905061314e5f830186612763565b61315b60208301856129fc565b6131686040830184612763565b949350505050565b7f436172206973206e6f7420666f722073616c65000000000000000000000000005f82015250565b5f6131a4601383612635565b91506131af82613170565b602082019050919050565b5f6020820190508181035f8301526131d181613198565b9050919050565b7f496e73756666696369656e74207061796d656e740000000000000000000000005f82015250565b5f61320c601483612635565b9150613217826131d8565b602082019050919050565b5f6020820190508181035f83015261323981613200565b9050919050565b5f6060820190506132535f830186612763565b6132606020830185612763565b61326d60408301846129fc565b949350505050565b5f81905092915050565b5f6132898261262b565b6132938185613275565b93506132a3818560208601612645565b80840191505092915050565b5f6132ba828561327f565b91506132c6828461327f565b91508190509392505050565b7f4e6f742074686520746f6b656e206f776e6572000000000000000000000000005f82015250565b5f613306601383612635565b9150613311826132d2565b602082019050919050565b5f6020820190508181035f830152613333816132fa565b9050919050565b7f4e487b71000000000000000000000000000000000000000000000000000000005f52603260045260245ffd5b5f81519050919050565b5f82825260208201905092915050565b5f61338b82613367565b6133958185613371565b93506133a5818560208601612645565b6133ae8161266d565b840191505092915050565b5f6080820190506133cc5f830187612763565b6133d96020830186612763565b6133e660408301856129fc565b81810360608301526133f88184613381565b905095945050505050565b5f81519050613411816125a3565b92915050565b5f6020828403121561342c5761342b612570565b5b5f61343984828501613403565b91505092915050565b5f61344c826126d5565b9150613457836126d5565b925082820390508181111561346f5761346e612e5b565b5b92915050565b7f4e487b71000000000000000000000000000000000000000000000000000000005f52603160045260245ffd5b7f4e487b71000000000000000000000000000000000000000000000000000000005f52601260045260245ffd5b5f6040820190506134e25f830185612763565b6134ef60208301846129fc565b939250505056fea26469706673582212205d2df96f77d5524ac638435315966dd2de727636bb9a40db7be43b1c027e7ecf64736f6c63430008140033","linkReferences":{}},"methodIdentifiers":{"adminMintNft(address,string,string,uint256,string,uint256)":"22fcb81f","approve(address,uint256)":"095ea7b3","balanceOf(address)":"70a08231","buyCarNft(uint256)":"c6bdcfc8","carData(uint256)":"6161ee71","getApproved(uint256)":"081812fc","getAvailableNfts()":"ea998004","getCarMetadata(uint256)":"3a32bda3","isApprovedForAll(address,address)":"e985e9c5","name()":"06fdde03","nextTokenId()":"75794a3c","nftsForSale(uint256)":"37d327a1","owner()":"8da5cb5b","ownerOf(uint256)":"6352211e","renounceOwnership()":"715018a6","safeTransferFrom(address,address,uint256)":"42842e0e","safeTransferFrom(address,address,uint256,bytes)":"b88d4fde","setApprovalForAll(address,bool)":"a22cb465","setForSale(uint256,bool,uint256)":"cf5c1b52","supportsInterface(bytes4)":"01ffc9a7","symbol()":"95d89b41","tokenURI(uint256)":"c87b56dd","transferFrom(address,address,uint256)":"23b872dd","transferOwnership(address)":"f2fde38b"},"id":15}